:100000004EC0000068C0000066C0000064C0000070
:1000100062C0000060C000005EC000005CC0000064
:100020005AC0000058C0000056C0000054C0000074
:1000300052C0000050C000004EC000004CC0000084
:100040004AC0000048C0000046C0000044C0000094
:1000500042C0000040C000003EC000003CC00000A4
:100060003AC0000038C0000036C0000034C00000B4
:10007000084AD73B3BCE016E84BCBFFDC12F3D6C0F
:1000800074319ABD56833DDA3D00C77F11BED9E475
:10009000BB4C3E916BAAAABE000000803F00112419
:1000A0001FBECFEFD4E0DEBFCDBF11E0A0E0B1E0D6
:1000B000E2E1F2E102C005900D92A239B107D9F751
:1000C00021E0A2E9B1E001C01D92AC39B207E1F72D
:1000D000E3D10C94070994CF28ECAC01249FC00114
:1000E000259F900D11246AEF70E027D4CB01845630
:1000F00091098536910514F084E690E08C395FEF24
:10010000950714F48CE99FEF089528ECAC01249F27
:10011000C001259F900D11246AEF70E00ED4CB0131
:10012000845691098C395FEF950754F08536910517
:1001300054F49C012D5E3F4F2732310538F008956D
:100140008CE99FEF089584E690E0089580E090E0C8
:100150000895FF920F931F93CF93DF938C01EB01D0
:1001600086E08093001485E38A95F1F70000E0E0D3
:10017000F4E1808197E0908395E39A95F1F7000090
:10018000F090001490E0A8DFF801918380838F2D18
:1001900090E0A2DF9983888380E090E0DF91CF91A7
:1001A0001F910F91FF900895FF920F931F93CF938C
:1001B000DF938C01EB0185E08093001485E38A9541
:1001C000F1F70000E0E0F4E1808194E0908395E3B2
:1001D0009A95F1F70000F090001490E096DFF80196
:1001E000918380838F2D90E090DF9983888380E0D6
:1001F00090E0DF91CF911F910F91FF900895CF93E1
:10020000DF9300D000D0CDB7DEB71A8219821C82EE
:100210001B82BE016F5F7F4FCE010396C5DF8981D0
:100220009A816B817C8189D3882777FD8095982F6F
:100230009ED142D169D1CB010F900F900F900F90BA
:10024000DF91CF910895CF93DF9300D000D0CDB749
:10025000DEB71A8219821C821B82BE016F5F7F4F3C
:10026000CE010396A1DF29813A81B901332324F419
:1002700066277727621B730B8B819C81AC019923C6
:1002800024F444275527481B590B6417750744F479
:1002900099238CF0181619068CF084E090E019C0B0
:1002A0004617570774F433237CF0121613067CF0BC
:1002B00084E090E00EC083E090E00BC082E090E02C
:1002C00008C084E090E005C080E090E002C081E0DA
:1002D00090E00F900F900F900F90DF91CF910895C5
:1002E00084E08093001485E38A95F1F70000E0E054
:1002F000F4E1408150E04C58510985E0808385E36A
:100300008A95F1F700002091001430E02C58310953
:10031000BA01552324F466277727641B750BC9019E
:10032000332324F488279927821B930B68177907B6
:1003300044F433238CF0121613068CF084E090E022
:1003400019C08617970774F455237CF01416150608
:100350007CF084E090E00EC083E090E00BC082E08F
:1003600090E008C084E090E005C080E090E002C02A
:1003700081E090E04D5E5F4F4732510538F42D5ECD
:100380003F4F2732310510F484E090E00895CF9379
:10039000DF93CDB7DEB728970FB6F894DEBF0FBE58
:1003A000CDBF1A8219821C821B821E821D82188672
:1003B0001F82BE016F5F7F4FCE010396F5DEBE0147
:1003C000695F7F4FCE010596C4DE8A818F93898154
:1003D0008F9386E091E09F938F9320D38C818F93AE
:1003E0008B818F9387E891E09F938F9317D38E81B2
:1003F0008F938D818F9381E191E09F938F930ED3A3
:1004000088858F938F818F9386E291E09F938F935E
:1004100005D3F5DE9F938F938CE391E09F938F93A9
:10042000FDD211DF9F938F9384E591E09F938F938B
:10043000F5D256DF9F938F9380E791E09F938F9340
:10044000EDD20FB6F894DEBF0FBECDBF80E090E0D6
:1004500028960FB6F894DEBF0FBECDBFDF91CF91C7
:1004600008955D9BFECF8CB908955F99FECF8CB146
:10047000089590BD89B988E98AB98EE880BD65E3A1
:1004800072E081E392E080C2089585B7806885BFFD
:1004900080B7806280BF08958FE190E0EADFF5DFEA
:1004A000B89875DF2FEF8FE795E22150804090409C
:1004B000E1F700C00000F5CFDF93DD27B92FBF774C
:1004C00040E85FE31616170648075B0710F4D92FBC
:1004D000E8D09F938F937F936F934BD1E0E7F0E049
:1004E00081D0A5D02F913F914F915F91EBD0DD232B
:1004F00049F09058A2EA2AED3FE049EC5FE3D0785A
:100500005D2747D1DF9193C004D06894B111C3C077
:100510000895A6D088F09F5790F0B92F9927B7512A
:10052000A0F0D1F0660F771F881F991F1AF0BA95B7
:10053000C9F712C0B13081F0ADD0B1E00895AAC0C2
:10054000672F782F8827B85F39F0B93FCCF38695AD
:1005500077956795B395D9F73EF49095809570950A
:1005600061957F4F8F4F9F4F0895E89409C097FB87
:100570003EF490958095709561957F4F8F4F9F4F7A
:100580009923A9F0F92F96E9BB279395F6958795BE
:1005900077956795B795F111F8CFFAF4BB0F11F481
:1005A00060FF1BC06F5F7F4F8F4F9F4F16C0882328
:1005B00011F096E911C0772321F09EE8872F762F5E
:1005C00005C0662371F096E8862F70E060E02AF09F
:1005D0009A95660F771F881FDAF7880F969587958B
:1005E00097F90895DF93CF931F930F93FF92EF92A4
:1005F000DF927B018C01689405C0DA2EEF0162D096
:10060000FE01E894A5912591359145915591AEF360
:10061000EF01BFD0FE019701A801DA9479F7DF90CE
:10062000EF90FF900F911F91CF91DF910895092EC8
:100630000394000C11F4882352F0BB0F40F4BF2B3D
:1006400011F460FF04C06F5F7F4F8F4F9F4F08957D
:1006500057FD9058440F551F59F05F3F71F0479573
:10066000880F97FB991F61F09F3F79F08795089558
:10067000121613061406551FF2CF4695F1DF08C077
:10068000161617061806991FF1CF86957105610594
:1006900008940895E894BB2766277727CB0197F93C
:1006A00008959B01AC0160E070E080E89FE3C4C066
:1006B00034D128F039D118F0952309F025C12AC189
:1006C0001124E9CFC5DFA0F3959FD1F3950F50E03A
:1006D000551F629FF001729FBB27F00DB11D639FF4
:1006E000AA27F00DB11DAA1F649F6627B00DA11D9A
:1006F000661F829F2227B00DA11D621F739FB00D40
:10070000A11D621F839FA00D611D221F749F3327AF
:10071000A00D611D231F849F600D211D822F762F48
:100720006A2F11249F5750408AF0E1F088234AF045
:10073000EE0FFF1FBB1F661F771F881F9150504091
:10074000A9F79E3F510570F0DFC0A5CF5F3FECF3E6
:10075000983EDCF3869577956795B795F795E7957D
:100760009F5FC1F7FE2B880F911D9695879597F98E
:1007700008959B01AC01DFC0D0D030F0D5D020F07F
:1007800031F49F3F11F41EF4C5C00EF4E095E7FB71
:10079000BBC0E92F5DDF80F3BA17620773078407D8
:1007A000950718F071F49EF575CF0EF4E0950B2EB9
:1007B000BA2FA02D0B01B90190010C01CA01A001B3
:1007C0001124FF27591B99F0593F50F4503E68F10E
:1007D0001A16F040A22F232F342F4427585FF3CF4F
:1007E000469537952795A795F0405395C9F77EF420
:1007F0001F16BA0B620B730B840BBAF09150A1F069
:10080000FF0FBB1F661F771F881FC2F70EC0BA0FEE
:10081000621F731F841F48F4879577956795B79576
:10082000F7959E3F08F0B3CF9395880F08F099276E
:10083000EE0F9795879508950CD0F9CE75D040F0BE
:100840006CD030F021F45F3F19F05EC0511123CF1E
:1008500061C0FEDE98F39923C9F35523B1F3951BCC
:10086000550BBB27AA2762177307840738F09F5FD1
:100870005F4F220F331F441FAA1FA9F333D00E2E40
:100880003AF0E0E830D091505040E695001CCAF7AD
:1008900029D0FE2F27D0660F771F881FBB1F261772
:1008A00037074807AB07B0E809F0BB0B802DBF0145
:1008B000FF2793585F4F2AF09E3F510568F024C0F0
:1008C000EACE5F3FECF3983EDCF38695779567952B
:1008D000B795F7959F5FC9F7880F911D96958795F6
:1008E00097F90895E1E0660F771F881FBB1F621715
:1008F00073078407BA0720F0621B730B840BBA0BD3
:10090000EE1F88F7E095089597F99F6780E870E0FB
:1009100060E008959FEF80EC089500240A94161675
:10092000170618060906089500240A9412161306DD
:10093000140605060895C6DE7ACE97FB072E16F438
:10094000009406D077FD08D00BD007FC05D03EF40C
:10095000909581959F4F0895709561957F4F08956B
:10096000AA1BBB1B51E107C0AA1FBB1FA617B707D5
:1009700010F0A61BB70B881F991F5A95A9F78095F1
:100980009095BC01CD0108950F931F93CF93DF93F2
:10099000EC018B01009731F46115710519F480E0C9
:1009A00090E037C06EE070E081E090E00BD2FC0197
:1009B0000097A9F380E883830115110571F013876F
:1009C000028781E883838091920190919301892B22
:1009D00021F4F0939301E09392012097C9F0D1871D
:1009E000C087838182608383809194019091950177
:1009F000892B71F4F0939501E09394018091960115
:100A000090919701892B21F4F0939701E09396013F
:100A1000CF01DF91CF911F910F910895A0E0B0E039
:100A2000E3E1F5E0CDC3FE01359661917191AF012F
:100A3000809194019091950102D0E2E0DDC3ACE099
:100A4000B0E0E4E2F5E0ACC37C016B018A01FC019B
:100A500017821682838181FFB0C1CE0101964C01BD
:100A6000F7019381F60193FD859193FF81916F01C9
:100A7000882309F49EC1853239F493FD859193FF53
:100A800081916F01853221F4B70190E0F9D2E8CF6E
:100A9000512C312C20E02032A0F48B3269F030F45C
:100AA000803259F0833269F420612CC08D3239F0E4
:100AB000803339F4216026C02260246023C028607E
:100AC00021C027FD27C030ED380F3A3078F426FFDB
:100AD00006C0FAE05F9E300D1124532E13C08AE049
:100AE000389E300D1124332E20620CC08E3221F43A
:100AF00026FD5FC1206406C08C3611F4206802C058
:100B0000883641F4F60193FD859193FF81916F0141
:100B10008111C1CF982F9F7D9554933028F40C5F9D
:100B20001F4FFFE3F9830DC0833631F0833771F037
:100B3000833509F057C021C0F801808189830E5F99
:100B40001F4F44244394512C540114C03801F2E047
:100B50006F0E711CF801A080B18026FF03C0652DC7
:100B600070E002C06FEF7FEFC5012C877ED22C01B1
:100B700083012C852F77222E16C03801F2E06F0EEC
:100B8000711CF801A080B18026FF03C0652D70E0C4
:100B900002C06FEF7FEFC5012C8755D22C012C8549
:100BA0002068222E830123FC19C0832D90E0481673
:100BB0005906A0F4B70180E290E062D23A94F5CFF2
:100BC000F50127FC859127FE81915F01B70190E037
:100BD00057D231103A94F1E04F1A510841145104A0
:100BE00079F7DEC0843611F0893631F5F80127FF38
:100BF00007C060817181828193810C5F1F4F08C0A3
:100C000060817181882777FD8095982F0E5F1F4F37
:100C10002F76B22E97FF09C09095809570956195BB
:100C20007F4F8F4F9F4F2068B22E2AE030E0A40103
:100C300059D2A82EA81843C0853729F42F7EB22E8A
:100C40002AE030E025C0F22FF97FBF2E8F36C1F0A9
:100C500018F4883579F0ADC0803719F0883721F065
:100C6000A8C02F2F2061B22EB4FE0DC08B2D846042
:100C7000B82E09C024FF0AC09F2F9660B92E06C067
:100C800028E030E005C020E130E002C020E132E0A1
:100C9000F801B7FE07C060817181828193810C5F8A
:100CA0001F4F06C06081718180E090E00E5F1F4F92
:100CB000A40118D2A82EA818FB2DFF77BF2EB6FED0
:100CC0000BC02B2D2E7FA51450F4B4FE0AC0B2FC2D
:100CD00008C02B2D2E7E05C07A2C2B2D03C07A2C1C
:100CE00001C0752C24FF0DC0FE01EA0DF11D8081AD
:100CF000803311F4297E09C022FF06C073947394D7
:100D000004C0822F867809F0739423FD12C020FF5F
:100D100006C05A2C731418F4530C5718732C731400
:100D200060F4B70180E290E02C87AAD173942C85FF
:100D3000F6CF731410F4371801C0312C24FF11C002
:100D4000B70180E390E02C879BD12C8522FF16C051
:100D500021FF03C088E590E002C088E790E0B7017A
:100D60000CC0822F867851F021FD02C080E201C0C4
:100D70008BE227FD8DE2B70190E082D1A51430F41B
:100D8000B70180E390E07CD15A94F8CFAA94F401A3
:100D9000EA0DF11D8081B70190E072D1A110F6CF6C
:100DA000332009F45DCEB70180E290E069D13A9436
:100DB000F7CFF7018681978102C08FEF9FEF2C96C6
:100DC000E2E10AC20F931F93CF93DF93869F8001C6
:100DD000879F100D969F100D1124C8010DD0EC01B6
:100DE000009721F0A80160E070E038D1CE01DF91DA
:100DF000CF911F910F910895CF93DF93823091058A
:100E000010F482E090E0E0919A01F0919B0120E0E3
:100E100030E0A0E0B0E0309739F1408151814817CF
:100E20005907B8F04817590771F4828193811097D8
:100E300029F013969C938E9312972CC090939B014C
:100E400080939A0127C02115310531F042175307CD
:100E500018F0A901DB0101C0EF019A01BD01DF011A
:100E60000280F381E02DD7CF21153105F9F0281B41
:100E7000390B2430310580F48A819B81611571051D
:100E800021F0FB019383828304C090939B018093A4
:100E90009A01FE01329644C0FE01E20FF31F8193D6
:100EA000919322503109398328833AC020919801C7
:100EB00030919901232B41F42091020130910301DB
:100EC0003093990120939801209100013091010104
:100ED0002115310541F42DB73EB7409104015091E1
:100EE0000501241B350BE0919801F0919901E2175F
:100EF000F307A0F42E1B3F0B2817390778F0AC013D
:100F00004E5F5F4F2417350748F04E0F5F1F509319
:100F10009901409398018193919302C0E0E0F0E041
:100F2000CF01DF91CF910895CF93DF93009709F41C
:100F300087C0FC01329713821282C0919A01D0912E
:100F40009B01209781F420813181280F391F8091E6
:100F50009801909199018217930779F5F09399017F
:100F6000E09398016DC0DE0120E030E0AE17BF07CE
:100F700050F412964D915C9113979D0141155105C6
:100F800009F1DA01F3CFB383A28340815181840F49
:100F9000951F8A179B0771F48D919C911197840F6F
:100FA000951F02969183808312968D919C91139741
:100FB000938382832115310529F4F0939B01E093FB
:100FC0009A013EC0D9011396FC93EE9312974D916E
:100FD0005D91A40FB51FEA17FB0779F48081918119
:100FE000840F951F0296D90111969C938E9382814E
:100FF000938113969C938E931297E0E0F0E08A81A0
:101000009B81009719F0FE01EC01F9CFCE01029609
:1010100028813981820F931F209198013091990185
:101020002817390769F4309729F410929B01109220
:101030009A0102C013821282D0939901C093980141
:10104000DF91CF910895FC0105906150704001102F
:10105000D8F7809590958E0F9F1F0895DC0101C0F1
:101060006D9341505040E0F70895FC01615070408D
:1010700001900110D8F7809590958E0F9F1F0895CD
:101080000F931F93CF93DF93182F092FEB018B81C1
:1010900081FD03C08FEF9FEF20C082FF10C04E8103
:1010A0005F812C813D81421753077CF4E881F981EF
:1010B0009F012F5F3F4F39832883108306C0E88547
:1010C000F985812F0995892B29F72E813F812F5F83
:1010D0003F4F3F832E83812F902FDF91CF911F9120
:1010E0000F910895FA01AA27283051F1203181F19A
:1010F000E8946F936E7F6E5F7F4F8F4F9F4FAF4F20
:10110000B1E03ED0B4E03CD0670F781F891F9A1F32
:10111000A11D680F791F8A1F911DA11D6A0F711DE6
:10112000811D911DA11D20D009F468943F912AE0F2
:10113000269F11243019305D3193DEF6CF010895DA
:10114000462F4770405D4193B3E00FD0C9F7F6CF0B
:10115000462F4F70405D4A3318F0495D31FD4052D3
:10116000419302D0A9F7EACFB4E0A6959795879569
:1011700077956795BA95C9F7009761057105089548
:101180009B01AC010A2E06945795479537952795F4
:10119000BA95C9F7620F731F841F951FA01D08958C
:1011A0002F923F924F925F926F927F928F929F9277
:1011B000AF92BF92CF92DF92EF92FF920F931F9365
:1011C000CF93DF93CDB7DEB7CA1BDB0B0FB6F89416
:1011D000DEBF0FBECDBF09942A88398848885F8456
:1011E0006E847D848C849B84AA84B984C884DF80C7
:1011F000EE80FD800C811B81AA81B981CE0FD11DAB
:101200000FB6F894DEBF0FBECDBFED010895F89480
:02121000FFCF0E
:1012120000009C01200078203D20202564200D0A3A
:10122200006C65667420736C69646572203D2020D1
:101232002564200D0A00726967687420736C696402
:101242006572203D20202564200D0A006A6F7973A3
:101252007469636B20616E676C65203D2020256494
:10126200200D0A006A6F79737469636B2064697276
:10127200656374696F6E203D20202564200D0A008D
:101282006A6F79737469636B2064697265637469E8
:101292006F6E5F64756D6D79203D20202564200D91
:0212A2000A0040
:00000001FF
