S011000050696E6720506F6E672E73726563D1
S113000037C0000050C000004EC000004CC00000CB
S11300104AC0000048C0000046C0000044C00000C0
S113002042C0000040C000003EC000003CC00000D0
S11300303AC0000038C0000036C0000034C00000E0
S113004032C0000030C000002EC000002CC00000F0
S11300502AC0000028C0000026C0000024C0000000
S113006022C0000020C000001EC000001CC0000010
S113007011241FBECFEFD4E0DEBFCDBF11E0A0E05E
S1130080B1E0EEE8F9E002C005900D92A63FB10799
S1130090D9F722E0A6EFB1E001C01D92A030B2076B
S11300A0E1F71DD072C4ACCF5D9BFECF8CB908952F
S11300B05F99FECF8CB1089590BD89B988E98AB95A
S11300C08EE880BD68E570E084E590E01BC008958B
S11300D085B7806885BF80B7806280BF08958FE14F
S11300E090E0EADFF5DFB898CBEED1E086B381701B
S11300F01F928F93DF93CF934FD00F900F900F9059
S11301000F90F4CF0F931F93CF93DF93EC018B01E8
S1130110009731F46115710519F480E090E037C05F
S11301206EE070E081E090E00BD2FC010097A9F34F
S113013080E883830115110571F01387028781E834
S113014083838091F6019091F701892B21F4F09338
S1130150F701E093F6012097C9F0D187C087838126
S1130160826083838091F8019091F901892B71F465
S1130170F093F901E093F8018091FA019091FB0169
S1130180892B21F4F093FB01E093FA01CF01DF9175
S1130190CF911F910F910895A0E0B0E0E1EDF0E060
S11301A0CDC3FE01359661917191AF018091F80143
S11301B09091F90102D0E2E0DDC3ACE0B0E0E2EE00
S11301C0F0E0ACC37C016B018A01FC01178216824A
S11301D0838181FFB0C1CE0101964C01F701938167
S11301E0F60193FD859193FF81916F01882309F4B2
S11301F09EC1853239F493FD859193FF81916F01FE
S1130200853221F4B70190E0F9D2E8CF512C312C9A
S113021020E02032A0F48B3269F030F4803259F0BF
S1130220833269F420612CC08D3239F0803339F483
S1130230216026C02260246023C0286021C027FDDD
S113024027C030ED380F3A3078F426FF06C0FAE0C4
S11302505F9E300D1124532E13C08AE0389E300D5A
S11302601124332E20620CC08E3221F426FD5FC18E
S1130270206406C08C3611F4206802C0883641F42C
S1130280F60193FD859193FF81916F018111C1CF97
S1130290982F9F7D9554933028F40C5F1F4FFFE3F4
S11302A0F9830DC0833631F0833771F0833509F05B
S11302B057C021C0F801808189830E5F1F4F4424F9
S11302C04394512C540114C03801F2E06F0E711C98
S11302D0F801A080B18026FF03C0652D70E002C044
S11302E06FEF7FEFC5012C877ED22C0183012C8513
S11302F02F77222E16C03801F2E06F0E711CF80120
S1130300A080B18026FF03C0652D70E002C06FEFAE
S11303107FEFC5012C8755D22C012C852068222E15
S1130320830123FC19C0832D90E048165906A0F4DC
S1130330B70180E290E062D23A94F5CFF50127FC50
S1130340859127FE81915F01B70190E057D231106A
S11303503A94F1E04F1A51084114510479F7DEC080
S1130360843611F0893631F5F80127FF07C0608122
S11303707181828193810C5F1F4F08C060817181FC
S1130380882777FD8095982F0E5F1F4F2F76B22E0A
S113039097FF09C090958095709561957F4F8F4F19
S11303A09F4F2068B22E2AE030E0A40159D2A82E33
S11303B0A81843C0853729F42F7EB22E2AE030E0F6
S11303C025C0F22FF97FBF2E8F36C1F018F488357F
S11303D079F0ADC0803719F0883721F0A8C02F2FED
S11303E02061B22EB4FE0DC08B2D8460B82E09C0DE
S11303F024FF0AC09F2F9660B92E06C028E030E083
S113040005C020E130E002C020E132E0F801B7FE8F
S113041007C060817181828193810C5F1F4F06C088
S11304206081718180E090E00E5F1F4FA40118D2BB
S1130430A82EA818FB2DFF77BF2EB6FE0BC02B2DC0
S11304402E7FA51450F4B4FE0AC0B2FC08C02B2DB4
S11304502E7E05C07A2C2B2D03C07A2C01C0752C5E
S113046024FF0DC0FE01EA0DF11D8081803311F4DB
S1130470297E09C022FF06C07394739404C0822F9E
S1130480867809F0739423FD12C020FF06C05A2C0D
S1130490731418F4530C5718732C731460F4B701C5
S11304A080E290E02C87AAD173942C85F6CF731444
S11304B010F4371801C0312C24FF11C0B70180E3B8
S11304C090E02C879BD12C8522FF16C021FF03C00E
S11304D088E590E002C088E790E0B7010CC0822F65
S11304E0867851F021FD02C080E201C08BE227FD35
S11304F08DE2B70190E082D1A51430F4B70180E316
S113050090E07CD15A94F8CFAA94F401EA0DF11D3D
S11305108081B70190E072D1A110F6CF332009F4A5
S11305205DCEB70180E290E069D13A94F7CFF7014C
S11305308681978102C08FEF9FEF2C96E2E10AC279
S11305400F931F93CF93DF93869F8001879F100D96
S1130550969F100D1124C8010DD0EC01009721F0D5
S1130560A80160E070E038D1CE01DF91CF911F91F6
S11305700F910895CF93DF938230910510F482E0B8
S113058090E0E091FE01F091FF0120E030E0A0E076
S1130590B0E0309739F14081518148175907B8F0DC
S11305A04817590771F482819381109729F01396A3
S11305B09C938E9312972CC09093FF018093FE011D
S11305C027C02115310531F04217530718F0A9014E
S11305D0DB0101C0EF019A01BD01DF010280F3815B
S11305E0E02DD7CF21153105F9F0281B390B243024
S11305F0310580F48A819B816115710521F0FB012D
S11306009383828304C09093FF018093FE01FE01D3
S1130610329644C0FE01E20FF31F8193919322505E
S11306203109398328833AC02091FC013091FD01BE
S1130630232B41F420910201309103013093FD01F9
S11306402093FC0120910001309101012115310515
S113065041F42DB73EB74091040150910501241B8C
S1130660350BE091FC01F091FD01E217F307A0F4D2
S11306702E1B3F0B2817390778F0AC014E5F5F4FF4
S11306802417350748F04E0F5F1F5093FD01409328
S1130690FC018193919302C0E0E0F0E0CF01DF918F
S11306A0CF910895CF93DF93009709F487C0FC019D
S11306B0329713821282C091FE01D091FF012097DC
S11306C081F420813181280F391F8091FC019091A0
S11306D0FD018217930779F5F093FD01E093FC0186
S11306E06DC0DE0120E030E0AE17BF0750F4129673
S11306F04D915C9113979D014115510509F1DA0162
S1130700F3CFB383A28340815181840F951F8A174D
S11307109B0771F48D919C911197840F951F0296FC
S11307209183808312968D919C91139793838283F6
S11307302115310529F4F093FF01E093FE013EC039
S1130740D9011396FC93EE9312974D915D91A40FEA
S1130750B51FEA17FB0779F480819181840F951FF7
S11307600296D90111969C938E938281938113965C
S11307709C938E931297E0E0F0E08A819B8100972E
S113078019F0FE01EC01F9CFCE01029628813981DE
S1130790820F931F2091FC013091FD012817390726
S11307A069F4309729F41092FF011092FE0102C0FF
S11307B013821282D093FD01C093FC01DF91CF918B
S11307C00895FC010590615070400110D8F78095A0
S11307D090958E0F9F1F0895DC0101C06D934150C9
S11307E05040E0F70895FC01615070400190011001
S11307F0D8F7809590958E0F9F1F08950F931F93A0
S1130800CF93DF93182F092FEB018B8181FD03C058
S11308108FEF9FEF20C082FF10C04E815F812C813B
S11308203D81421753077CF4E881F9819F012F5FD2
S11308303F4F39832883108306C0E885F985812FCB
S11308400995892B29F72E813F812F5F3F4F3F83E5
S11308502E83812F902FDF91CF911F910F910895B7
S1130860FA01AA27283051F1203181F1E8946F93DD
S11308706E7F6E5F7F4F8F4F9F4FAF4FB1E03ED083
S1130880B4E03CD0670F781F891F9A1FA11D680F21
S1130890791F8A1F911DA11D6A0F711D811D911D54
S11308A0A11D20D009F468943F912AE0269F1124C9
S11308B03019305D3193DEF6CF010895462F47702D
S11308C0405D4193B3E00FD0C9F7F6CF462F4F7088
S11308D0405D4A3318F0495D31FD4052419302D0E6
S11308E0A9F7EACFB4E0A69597958795779567958C
S11308F0BA95C9F700976105710508959B01AC018C
S11309000A2E06945795479537952795BA95C9F7B2
S1130910620F731F841F951FA01D08952F923F928D
S11309204F925F926F927F928F929F92AF92BF92FB
S1130930CF92DF92EF92FF920F931F93CF93DF93A7
S1130940CDB7DEB7CA1BDB0B0FB6F894DEBF0FBE04
S1130950CDBF09942A88398848885F846E847D8451
S11309608C849B84AA84B984C884DF80EE80FD8053
S11309700C811B81AA81B981CE0FD11D0FB6F894C9
S1110980DEBF0FBECDBFED010895F894FFCF8A
S113098E0000000220005374617274696E67205374
S113099E52414D20746573742E2E2E005772697455
S11309AE65207068617365206572726F723A206596
S11309BE78745F72616D5B2534645D203D20253053
S11309CE3258202873686F756C6420626520253058
S11309DE3258290A0052657472696576616C20700A
S11309EE68617365206572726F723A206578745F00
S11309FE72616D5B2534645D203D202530325820B4
S1130A0E2873686F756C642062652025303258290E
S1130A1E0A005352414D207465737420636F6D70D8
S1130A2E6C657465642077697468200A25346420C3
S1130A3E6572726F727320696E20777269746520A5
S1130A4E706861736520616E64200A2534642065C4
S1130A5E72726F727320696E207265747269657634
S1130A6E616C2070686173650A0A0070696E2025D6
S1090A7E64200D0A0000D3
S9030000FC
