:100000005FC30000D7C3000076C3000074C30000C4
:1000100072C3000070C300006EC300006CC3000018
:100020006AC3000068C3000066C3000064C3000028
:1000300062C3000060C300005EC300005CC3000038
:100040005AC3000058C3000056C3000054C3000048
:1000500052C3000050C300004EC300004CC3000058
:100060004AC3000048C3000046C3000044C3000068
:1000700000000000005C00000C000C007C287C28C4
:1000800058DC68002410480028542840000C000068
:10009000007884008478000054385400107C1000EC
:1000A00080400000101010000040000060100C00A4
:1000B00038543800487C40004864580044542C00B0
:1000C0001C107C005C5424003854240064140C0080
:1000D00068542C0048543800004800008048000054
:1000E0001028440028282800442810000454080040
:1000F00038445C00781478007C5428003844280088
:100100007C4438007C5444007C140400384474005F
:100110007C107C00447C440020403C007C106C003F
:100120007C4040007C187C0078103C00384438004B
:100130007C1408003844B8007C146800485424003B
:10014000047C04007C407C003C603C007C307C00F3
:100150006C106C000C700C0064544C00007C44006B
:100160000C106000447C00000804080080808000BF
:1001700000040800304878007C48300030484800CF
:1001800030487C00306850001078140090A8780047
:100190007C08700050744000808074007C106800FF
:1001A000447C4000781078007808700030483000B7
:1001B000F82810003048F80078100800505828003F
:1001C000083C4800384078003840380078207800F3
:1001D0004830480098A0780048685800107884009B
:1001E000007C00008478100008040804000000006F
:1001F0000000005F00000007000700147F147F1458
:10020000242A7F2A1223130864623649552250009B
:1002100005030000001C2241000041221C00082AA6
:100220001C2A0808083E080800503000000808088A
:100230000808006060000020100804023E51494593
:100240003E00427F400042615149462141454B31C9
:100250001814127F1027454545393C4A4949300159
:10026000710905033649494936064949291E0036B0
:100270003600000056360000000814224114141401
:10028000141441221408000201510906324979412F
:100290003E7E1111117E7F494949363E414141223E
:1002A0007F4141221C7F494949417F090901013EA3
:1002B000414151327F0808087F00417F41002040C2
:1002C000413F017F081422417F404040407F0204AB
:1002D000027F7F0408107F3E4141413E7F090909AA
:1002E000063E4151215E7F09192946464949493157
:1002F00001017F01013F4040403F1F2040201F7F00
:100300002018207F631408146303047804036151E8
:1003100049454300007F4141020408102041417FCC
:100320000000040201020440404040400001020479
:100330000020545454787F4844443838444444207E
:10034000384444487F3854545418087E0901020840
:100350001454543C7F0804047800447D400020403D
:10036000443D00007F10284400417F40007C041879
:1003700004787C0804047838444444387C14141409
:1003800008081414187C7C080404084854545420A9
:10039000043F4440203C4040207C1C2040201C3C2A
:1003A0004030403C44281028440C5050503C446499
:1003B000544C44000836410000007F0000004136E4
:1003C000080002010302010000000000000000001C
:1003D000065F5F0600000000070700070700001423
:1003E0007F7F147F7F1400242E6B6B3A120000462F
:1003F0006630180C666200307A4F5D377A48000428
:1004000007030000000000001C3E634100000000E4
:1004100041633E1C000000082A3E1C1C3E2A0808BE
:10042000083E3E0808000000A0E060000000000850
:100430000808080808000000006060000000006074
:1004400030180C060301003E7F594D7F3E000042EC
:10045000427F7F40400000627359496F660000226E
:100460006349497F360000181C16137F7F10002750
:100470006745457D3900003C7E4B497930000003DB
:100480006371190F070000367F49497F3600000667
:100490004F49693F1E000000006C6C000000000026
:1004A000A0EC6C00000000081C3663410000001442
:1004B00014141414140000004163361C08000002D8
:1004C0000351590F0600003E7F415D5D1F1E007CF9
:1004D0007E13137E7C0000417F7F49497F36001CDC
:1004E0003E634141632200417F7F41637F1C0041A5
:1004F0007F7F495D416300417F7F491D0103001CEF
:100500003E6341517372007F7F08087F7F000000C7
:10051000417F7F41000000307040417F3F0100413A
:100520007F7F081C776300417F7F41406070007FC0
:100530007F060C067F7F007F7F060C187F7F001CE4
:100540003E6341633E1C00417F7F49090F06001E48
:100550003F21717F5E0000417F7F19396F46002681
:10056000674D597B32000003417F7F410300007FCC
:100570007F40407F7F00001F3F60603F1F00007F83
:100580007F3018307F7F0063771C081C776300077B
:100590004F78784F0700006773594D47637100002B
:1005A0007F7F41410000000103060C18306000000D
:1005B00041417F7F000000080C0603060C08008004
:1005C000808080808080800000030704000000207D
:1005D0007454543C784000413F7F44447C38003898
:1005E0007C44446C280000307848493F7F40003804
:1005F0007C54545C180000487E7F49030200009838
:10060000BCA4A4F87C0400417F7F08047C7800002F
:10061000447D7D4000000040C484FD7D0000004119
:100620007F7F10386C440000417F7F400000007CD9
:100630007C0C180C7C78007C7C04047C78000038EE
:100640007C44447C38000084FCF8A4243C18001846
:100650003C24A4F8FC8400447C78441C1800004826
:100660005C54547424000000043E7F442400003C89
:100670007C40403C7C40001C3C60603C1C00003CDA
:100680007C6030607C3C00446C3810386C44009CCA
:10069000BCA0A0FC7C00004C64745C4C64000008AE
:1006A000083E7741410000000000777700000041DC
:1006B00041773E0808000002030103020301000025
:1006C00011241FBECFEFD4E0DEBFCDBF12E0A0E00B
:1006D000B1E0E8E8F2E102C005900D92AA31B1075D
:1006E000D9F723E0AAE1B2E001C01D92A233B2071C
:1006F000E1F7BBD3C7C584CC84E090E0909321029E
:10070000809320020895CF93C82FC49883E090E08F
:1007100073D38C2F90E070D382D3C49ACF91089575
:10072000CF93DF93D82FC62FC49882E090E064D394
:100730008D2F90E061D38C2F90E05ED3C49ADF912F
:10074000CF910895CF93DF931F92CDB7DEB7806826
:10075000898361E0CE01019637D30F90DF91CF916D
:100760000895CF93DF9300D000D0CDB7DEB795E0EA
:1007700099838A836B834C8364E0CE01019624D3F2
:100780000F900F900F900F90DF91CF910895CF931E
:10079000DF931F92CDB7DEB780EC898361E0CE0195
:1007A000019612D30F90DF91CF910895CBD2EFDF56
:1007B00080E008951F920F920FB60F9211248F932D
:1007C0009F9381E090E090931D0280931C029F9183
:1007D0008F910F900FBE0F901F90189580911C0263
:1007E00090911D02892B31F010921D0210921C0273
:1007F00081E0089580E00895CF93DF93EC018CE2CF
:1008000082DF9E012E5F3F4F422F440F8423482FEB
:1008100050E0220F331F81E090E04217530711F49C
:1008200080E090E0DF91CF910895EF92FF920F93D7
:100830001F93CF93DF93EC0180911A0290911B02DA
:100840000196833091052CF490931B0280931A0239
:1008500016C010921B0210921A0211C020911A02A7
:1008600030911B022F5F3F4F30931B0220931A02DF
:100870002330310524F010921B0210921A0280914D
:100880001A0290911B02B8DF892B41F3E880F980AE
:10089000B7017695679576956795769567950AE1A0
:1008A00012E0F80180818295807F8F5C39DF6E2DA8
:1008B0006295660F607EF80180818295807F8E5CF4
:1008C0002FDFEA80F80180818295807F6E2D8B5C1E
:1008D00027DF2396EE2079F0F12C6991F8018081D1
:1008E0002F2DF0E18F9F200D1124822F8A5C18DFBD
:1008F000F394FE10F2CF80911A028F5723DFDF911D
:10090000CF911F910F91FF90EF9008950F931F9338
:10091000CF93DF93EB01182F1295107F81E6810FA3
:10092000F2DE082F82E6810FEEDE202F30E0220F6C
:10093000331F220F331F220F331F82958695877036
:10094000280F311D3983288385E6810FDCDE982F3F
:100950009F709A83882351F01A592396082F010F0C
:10096000812FD1DE89931F5F1013FACFDF91CF91D2
:100970001F910F910895CF93DF93EC018CE2C3DEBA
:10098000982F917098831982827090E09B838A835C
:10099000DF91CF9108950F931F93CF93DF93CDB73E
:1009A000DEB768970FB6F894DEBF0FBECDBF8C01DF
:1009B0001A821982CE010196DEDF89818823E9F04F
:1009C000BE016D5F7F4F80E090E0A0DF40E061E01E
:1009D0008CE2C7DECE010196CEDF8A81811104C090
:1009E00010921D0210921C028BE0FE013396D8017A
:1009F00001900D928A95E1F728C08A818823E9F059
:100A0000BE01625F7F4F81E090E080DF40E062E006
:100A10008CE2A7DECE010196AEDF8981811104C090
:100A200010921D0210921C028BE0FE013E96D8012E
:100A300001900D928A95E1F708C08BE0FE01339694
:100A4000D80101900D928A95E1F7C80168960FB61A
:100A5000F894DEBF0FBECDBFDF91CF911F910F91F4
:100A6000089591E29093001088231CF08093001069
:100A700003C08FE78093001066231CF06093001082
:100A800008958FE780930010089592E290930010EC
:100A9000883028F4E0E0F0E1808380830895E0E08E
:100AA000F0E187E0808380830895883060F4EDDF93
:100AB0006FE780E0D6DF80E890E0E0E0F2E11082CE
:100AC00001970097E1F70895CF93C0E08C2FEDDFF9
:100AD000CF5FC830D9F7CF910895E0E0F0E18EEA1A
:100AE000808381EA80838AED808382E1808388EC41
:100AF000808388EA80838FE3808385ED808380E82C
:100B0000808381E8808380E5808389ED808381E232
:100B1000808380E2808382E080838BED808380E32A
:100B200080838DEA8083108284EA808386EA8083D2
:100B30008FEA8083C9DF109227031092260308955D
:100B4000623041F494E08902A001112440515040E8
:100B500024E025C0613089F4482F552747FD509582
:100B600040525109CA01880F991F880F991F480FD9
:100B7000591F44515E4F25E012C098E08902A00140
:100B8000112449535D4F28E00AC0FA01E80FF91F0C
:100B9000E491EC93019682179307BCF3089530E03B
:100BA00080E090E0A0E0B2E1F0CF623041F494E068
:100BB0008902A00111244051504024E026C0613038
:100BC00089F4482F552747FD509540525109CA01D5
:100BD000880F991F880F991F480F591F44515E4F66
:100BE00025E013C098E08902A001112449535D4F0C
:100BF00028E00BC0FA01E80FF91FE491E095EC93AF
:100C0000019682179307B4F3089530E080E090E0F6
:100C1000A0E0B2E1EFCF8A3051F480911F028F5FE4
:100C200080931F0232DF60E880E01BDF03C0609129
:100C30001E0286DF80E008958A3051F480911F0201
:100C40008F5F80931F0221DF60E880E00ADF03C02E
:100C500060911E02AADF80E00895EF92FF920F9349
:100C60001F93CF93DF93FC0101900020E9F73197A8
:100C70007F01E81AF90A1E141F045CF48C01C0E01D
:100C8000D0E0F80181918F01C6DF2196EC16FD06B8
:100C9000C1F7DF91CF911F910F91FF90EF900895D1
:100CA000EF92FF920F931F93CF93DF93FC0101907C
:100CB0000020E9F731977F01E81AF90A1E141F0492
:100CC0005CF48C01C0E0D0E0F80181918F01B4DFC9
:100CD0002196EC16FD06C1F7DF91CF911F910F9180
:100CE000FF90EF900895F0DE81E0CFDE8091260343
:100CF00090912703892B21F486E091E0D1DF03C096
:100D000086E091E0AADF82E0C0DE80912603909128
:100D10002703019721F48FE091E0C2DF03C08FE049
:100D200091E09BDF83E0B1DE809126039091270361
:100D3000029721F488E191E0B3CF089588E191E032
:100D40008CCF089580EB87BBC49A81E58DB9089557
:100D5000C4987798242F30E01216130684F4A82F35
:100D6000B92FE62FF72F80E090E04D914FB9779B98
:100D7000FECF4FB14193019682179307B4F3C49A03
:100D80000895CF93DF93CDB7DEB72A970FB6F894C7
:100D9000DEBF0FBECDBF462FE82FF92F20E030E099
:100DA00011922F5F3F4F2A303105D1F7682F792FED
:100DB000CE010196CDDF2A960FB6F894DEBF0FBEA6
:100DC000CDBFDF91CF910895CF93DF93CDB7DEB73D
:100DD0002A970FB6F894DEBF0FBECDBF462FBE01D7
:100DE0006F5F7F4FB5DF2A960FB6F894DEBF0FBE58
:100DF000CDBFDF91CF910895CF93DF93EC0181E2D6
:100E000091E0CBD0FE0101900020E9F73197BF01BE
:100E10006C1B7D0BCE01D8DFDF91CF910895CF936E
:100E2000DF936AE0C0E0D0E0CE01ABDFCE01DF911E
:100E3000CF9108955D9BFECF8CB908955F99FECF49
:100E40008CB1089590BD89B988E98AB98EE880BDD2
:100E50006EE177E08AE197E056C0089585B7806833
:100E600085BF80B7806280BF0895CF93DF93CDB7F1
:100E7000DEB7A1970FB6F894DEBF0FBECDBF8FE1EE
:100E800090E0E0DFEBDF87B3887F87BB26DE34DCD2
:100E90002ADF58DF8FE092E080D088DC89E395E09C
:100EA0009D878C8788E48F8721E6288B89E6898B4C
:100EB0008CE68A8B84E08E878AE395E09A83898327
:100EC00083E58C832D8384E78E832F838EE688874A
:100ED00085E08B83CE010C96A8DCCE010196A5DCC3
:100EE00081E291E05AD07ADC882331F081E291E00E
:100EF00054D0CE0147964FDD8FEF9FE80197F1F771
:100F000000C00000F0CF0F931F93CF93DF93EC014D
:100F10008B01009731F46115710519F480E090E0C0
:100F200037C06EE070E081E090E064D0FC01009793
:100F3000A9F380E883830115110571F013870287F7
:100F400081E883838091280390912903892B21F4E0
:100F5000F0932903E09328032097C9F0D187C08735
:100F600083818260838380912A0390912B03892B54
:100F700071F4F0932B03E0932A0380912C0390915A
:100F80002D03892B21F4F0932D03E0932C03CF0143
:100F9000DF91CF911F910F9108950F931F93CF93DE
:100FA000DF93E0912A03F0912B03238121FF1BC0E3
:100FB000EC0100E010E0899160912A0370912B030D
:100FC000DB011896ED91FC911997882331F0099572
:100FD000892B89F30FEF1FEFEECF8AE00995892B5C
:100FE00011F4C80102C08FEF9FEFDF91CF911F91E5
:100FF0000F9108950F931F93CF93DF93869F8001E6
:10100000879F100D969F100D1124C8010DD0EC0183
:10101000009721F0A80160E070E02DD1CE01DF91B2
:10102000CF911F910F910895CF93DF938230910557
:1010300010F482E090E0E0913003F091310320E081
:1010400030E0A0E0B0E0309739F14081518148179D
:101050005907B8F04817590771F4828193811097A6
:1010600029F013969C938E9312972CC09093310382
:101070008093300327C02115310531F04217530703
:1010800018F0A901DB0101C0EF019A01BD01DF01E8
:101090000280F381E02DD7CF21153105F9F0281B0F
:1010A000390B2430310580F48A819B8161157105EB
:1010B00021F0FB019383828304C0909331038093DA
:1010C0003003FE01329644C0FE01E20FF31F81930C
:1010D000919322503109398328833AC020912E03FD
:1010E00030912F03232B41F4209102013091030111
:1010F00030932F0320932E032091000130910101A2
:101100002115310541F42DB73EB7409104015091AE
:101110000501241B350BE0912E03F0912F03E217FC
:10112000F307A0F42E1B3F0B2817390778F0AC010A
:101130004E5F5F4F2417350748F04E0F5F1F5093E7
:101140002F0340932E038193919302C0E0E0F0E0DF
:10115000CF01DF91CF910895CF93DF93009709F4EA
:1011600087C0FC01329713821282C0913003D09164
:101170003103209781F420813181280F391F80911C
:101180002E0390912F038217930779F5F0932F0385
:10119000E0932E036DC0DE0120E030E0AE17BF0704
:1011A00050F412964D915C9113979D014115510594
:1011B00009F1DA01F3CFB383A28340815181840F17
:1011C000951F8A179B0771F48D919C911197840F3D
:1011D000951F02969183808312968D919C9113970F
:1011E000938382832115310529F4F0933103E09331
:1011F00030033EC0D9011396FC93EE9312974D91A4
:101200005D91A40FB51FEA17FB0779F480819181E6
:10121000840F951F0296D90111969C938E9382811B
:10122000938113969C938E931297E0E0F0E08A816D
:101230009B81009719F0FE01EC01F9CFCE010296D7
:1012400028813981820F931F20912E0330912F0323
:101250002817390769F4309729F410923103109256
:10126000300302C013821282D0932F03C0932E0347
:10127000DF91CF910895DC0101C06D934150504042
:08128000E0F70895F894FFCF98
:10128800000032032000537072696E67200A005311
:10129800756D6D6572200A0052657475726E200A4C
:1012A800004C7563696665720D00537461727469E8
:1012B8006E67205352414D20746573742E2E2E0094
:1012C8005772697465207068617365206572726F02
:1012D800723A206578745F72616D5B2534645D20B5
:1012E8003D2025303258202873686F756C64206261
:1012F800652025303258290A00526574726965766E
:10130800616C207068617365206572726F723A2033
:101318006578745F72616D5B2534645D203D2025BE
:10132800303258202873686F756C642062652025F8
:10133800303258290A005352414D20746573742085
:10134800636F6D706C657465642077697468200AD2
:10135800253464206572726F727320696E2077720B
:1013680069746520706861736520616E64200A2560
:101378003464206572726F727320696E20726574AE
:1013880072696576616C2070686173650A0A00424B
:0A13980065656C7A656275620D00F0
:00000001FF
